{
  "_format": "hh-sol-artifact-1",
  "contractName": "NFTMarketplace",
  "sourceName": "contracts/NFTMarketplace.sol",
  "abi": [
    {
      "inputs": [],
      "stateMutability": "nonpayable",
      "type": "constructor"
    },
    {
      "anonymous": false,
      "inputs": [
        {
          "indexed": true,
          "internalType": "address",
          "name": "owner",
          "type": "address"
        },
        {
          "indexed": true,
          "internalType": "address",
          "name": "approved",
          "type": "address"
        },
        {
          "indexed": true,
          "internalType": "uint256",
          "name": "tokenId",
          "type": "uint256"
        }
      ],
      "name": "Approval",
      "type": "event"
    },
    {
      "anonymous": false,
      "inputs": [
        {
          "indexed": true,
          "internalType": "address",
          "name": "owner",
          "type": "address"
        },
        {
          "indexed": true,
          "internalType": "address",
          "name": "operator",
          "type": "address"
        },
        {
          "indexed": false,
          "internalType": "bool",
          "name": "approved",
          "type": "bool"
        }
      ],
      "name": "ApprovalForAll",
      "type": "event"
    },
    {
      "anonymous": false,
      "inputs": [
        {
          "indexed": false,
          "internalType": "uint256",
          "name": "_fromTokenId",
          "type": "uint256"
        },
        {
          "indexed": false,
          "internalType": "uint256",
          "name": "_toTokenId",
          "type": "uint256"
        }
      ],
      "name": "BatchMetadataUpdate",
      "type": "event"
    },
    {
      "anonymous": false,
      "inputs": [
        {
          "indexed": false,
          "internalType": "uint256",
          "name": "_tokenId",
          "type": "uint256"
        }
      ],
      "name": "MetadataUpdate",
      "type": "event"
    },
    {
      "anonymous": false,
      "inputs": [
        {
          "indexed": true,
          "internalType": "address",
          "name": "from",
          "type": "address"
        },
        {
          "indexed": true,
          "internalType": "address",
          "name": "to",
          "type": "address"
        },
        {
          "indexed": true,
          "internalType": "uint256",
          "name": "tokenId",
          "type": "uint256"
        }
      ],
      "name": "Transfer",
      "type": "event"
    },
    {
      "inputs": [
        {
          "internalType": "address",
          "name": "to",
          "type": "address"
        },
        {
          "internalType": "uint256",
          "name": "tokenId",
          "type": "uint256"
        }
      ],
      "name": "approve",
      "outputs": [],
      "stateMutability": "nonpayable",
      "type": "function"
    },
    {
      "inputs": [
        {
          "internalType": "address",
          "name": "owner",
          "type": "address"
        }
      ],
      "name": "balanceOf",
      "outputs": [
        {
          "internalType": "uint256",
          "name": "",
          "type": "uint256"
        }
      ],
      "stateMutability": "view",
      "type": "function"
    },
    {
      "inputs": [
        {
          "internalType": "string",
          "name": "tokenURI",
          "type": "string"
        },
        {
          "internalType": "uint256",
          "name": "price",
          "type": "uint256"
        }
      ],
      "name": "createToken",
      "outputs": [
        {
          "internalType": "uint256",
          "name": "",
          "type": "uint256"
        }
      ],
      "stateMutability": "payable",
      "type": "function"
    },
    {
      "inputs": [
        {
          "internalType": "uint256",
          "name": "tokenId",
          "type": "uint256"
        }
      ],
      "name": "executeSale",
      "outputs": [],
      "stateMutability": "payable",
      "type": "function"
    },
    {
      "inputs": [],
      "name": "getAllNFTs",
      "outputs": [
        {
          "components": [
            {
              "internalType": "uint256",
              "name": "tokenId",
              "type": "uint256"
            },
            {
              "internalType": "address payable",
              "name": "owner",
              "type": "address"
            },
            {
              "internalType": "address payable",
              "name": "seller",
              "type": "address"
            },
            {
              "internalType": "uint256",
              "name": "price",
              "type": "uint256"
            },
            {
              "internalType": "bool",
              "name": "currentlyListed",
              "type": "bool"
            }
          ],
          "internalType": "struct NFTMarketplace.ListedToken[]",
          "name": "",
          "type": "tuple[]"
        }
      ],
      "stateMutability": "view",
      "type": "function"
    },
    {
      "inputs": [
        {
          "internalType": "uint256",
          "name": "tokenId",
          "type": "uint256"
        }
      ],
      "name": "getApproved",
      "outputs": [
        {
          "internalType": "address",
          "name": "",
          "type": "address"
        }
      ],
      "stateMutability": "view",
      "type": "function"
    },
    {
      "inputs": [],
      "name": "getCurrentToken",
      "outputs": [
        {
          "internalType": "uint256",
          "name": "",
          "type": "uint256"
        }
      ],
      "stateMutability": "view",
      "type": "function"
    },
    {
      "inputs": [],
      "name": "getLatestIdToListedToken",
      "outputs": [
        {
          "components": [
            {
              "internalType": "uint256",
              "name": "tokenId",
              "type": "uint256"
            },
            {
              "internalType": "address payable",
              "name": "owner",
              "type": "address"
            },
            {
              "internalType": "address payable",
              "name": "seller",
              "type": "address"
            },
            {
              "internalType": "uint256",
              "name": "price",
              "type": "uint256"
            },
            {
              "internalType": "bool",
              "name": "currentlyListed",
              "type": "bool"
            }
          ],
          "internalType": "struct NFTMarketplace.ListedToken",
          "name": "",
          "type": "tuple"
        }
      ],
      "stateMutability": "view",
      "type": "function"
    },
    {
      "inputs": [],
      "name": "getListPrice",
      "outputs": [
        {
          "internalType": "uint256",
          "name": "",
          "type": "uint256"
        }
      ],
      "stateMutability": "view",
      "type": "function"
    },
    {
      "inputs": [
        {
          "internalType": "uint256",
          "name": "tokenId",
          "type": "uint256"
        }
      ],
      "name": "getListedForTokenId",
      "outputs": [
        {
          "components": [
            {
              "internalType": "uint256",
              "name": "tokenId",
              "type": "uint256"
            },
            {
              "internalType": "address payable",
              "name": "owner",
              "type": "address"
            },
            {
              "internalType": "address payable",
              "name": "seller",
              "type": "address"
            },
            {
              "internalType": "uint256",
              "name": "price",
              "type": "uint256"
            },
            {
              "internalType": "bool",
              "name": "currentlyListed",
              "type": "bool"
            }
          ],
          "internalType": "struct NFTMarketplace.ListedToken",
          "name": "",
          "type": "tuple"
        }
      ],
      "stateMutability": "view",
      "type": "function"
    },
    {
      "inputs": [],
      "name": "getMyNFTs",
      "outputs": [
        {
          "components": [
            {
              "internalType": "uint256",
              "name": "tokenId",
              "type": "uint256"
            },
            {
              "internalType": "address payable",
              "name": "owner",
              "type": "address"
            },
            {
              "internalType": "address payable",
              "name": "seller",
              "type": "address"
            },
            {
              "internalType": "uint256",
              "name": "price",
              "type": "uint256"
            },
            {
              "internalType": "bool",
              "name": "currentlyListed",
              "type": "bool"
            }
          ],
          "internalType": "struct NFTMarketplace.ListedToken[]",
          "name": "",
          "type": "tuple[]"
        }
      ],
      "stateMutability": "view",
      "type": "function"
    },
    {
      "inputs": [
        {
          "internalType": "address",
          "name": "owner",
          "type": "address"
        },
        {
          "internalType": "address",
          "name": "operator",
          "type": "address"
        }
      ],
      "name": "isApprovedForAll",
      "outputs": [
        {
          "internalType": "bool",
          "name": "",
          "type": "bool"
        }
      ],
      "stateMutability": "view",
      "type": "function"
    },
    {
      "inputs": [],
      "name": "name",
      "outputs": [
        {
          "internalType": "string",
          "name": "",
          "type": "string"
        }
      ],
      "stateMutability": "view",
      "type": "function"
    },
    {
      "inputs": [
        {
          "internalType": "uint256",
          "name": "tokenId",
          "type": "uint256"
        }
      ],
      "name": "ownerOf",
      "outputs": [
        {
          "internalType": "address",
          "name": "",
          "type": "address"
        }
      ],
      "stateMutability": "view",
      "type": "function"
    },
    {
      "inputs": [
        {
          "internalType": "address",
          "name": "from",
          "type": "address"
        },
        {
          "internalType": "address",
          "name": "to",
          "type": "address"
        },
        {
          "internalType": "uint256",
          "name": "tokenId",
          "type": "uint256"
        }
      ],
      "name": "safeTransferFrom",
      "outputs": [],
      "stateMutability": "nonpayable",
      "type": "function"
    },
    {
      "inputs": [
        {
          "internalType": "address",
          "name": "from",
          "type": "address"
        },
        {
          "internalType": "address",
          "name": "to",
          "type": "address"
        },
        {
          "internalType": "uint256",
          "name": "tokenId",
          "type": "uint256"
        },
        {
          "internalType": "bytes",
          "name": "data",
          "type": "bytes"
        }
      ],
      "name": "safeTransferFrom",
      "outputs": [],
      "stateMutability": "nonpayable",
      "type": "function"
    },
    {
      "inputs": [
        {
          "internalType": "address",
          "name": "operator",
          "type": "address"
        },
        {
          "internalType": "bool",
          "name": "approved",
          "type": "bool"
        }
      ],
      "name": "setApprovalForAll",
      "outputs": [],
      "stateMutability": "nonpayable",
      "type": "function"
    },
    {
      "inputs": [
        {
          "internalType": "bytes4",
          "name": "interfaceId",
          "type": "bytes4"
        }
      ],
      "name": "supportsInterface",
      "outputs": [
        {
          "internalType": "bool",
          "name": "",
          "type": "bool"
        }
      ],
      "stateMutability": "view",
      "type": "function"
    },
    {
      "inputs": [],
      "name": "symbol",
      "outputs": [
        {
          "internalType": "string",
          "name": "",
          "type": "string"
        }
      ],
      "stateMutability": "view",
      "type": "function"
    },
    {
      "inputs": [
        {
          "internalType": "uint256",
          "name": "tokenId",
          "type": "uint256"
        }
      ],
      "name": "tokenURI",
      "outputs": [
        {
          "internalType": "string",
          "name": "",
          "type": "string"
        }
      ],
      "stateMutability": "view",
      "type": "function"
    },
    {
      "inputs": [
        {
          "internalType": "address",
          "name": "from",
          "type": "address"
        },
        {
          "internalType": "address",
          "name": "to",
          "type": "address"
        },
        {
          "internalType": "uint256",
          "name": "tokenId",
          "type": "uint256"
        }
      ],
      "name": "transferFrom",
      "outputs": [],
      "stateMutability": "nonpayable",
      "type": "function"
    },
    {
      "inputs": [
        {
          "internalType": "uint256",
          "name": "_listPrice",
          "type": "uint256"
        }
      ],
      "name": "updateListPrice",
      "outputs": [],
      "stateMutability": "nonpayable",
      "type": "function"
    }
  ],
  "bytecode": "0x6080604052662386f26fc10000600a553480156200001c57600080fd5b50604080518082018252600e81526d4e46544d61726b6574706c61636560901b6020808301918252835180850190945260048452634e46544d60e01b9084015281519192916200006f91600091620000a0565b50805162000085906001906020840190620000a0565b5050600780546001600160a01b031916331790555062000183565b828054620000ae9062000146565b90600052602060002090601f016020900481019282620000d257600085556200011d565b82601f10620000ed57805160ff19168380011785556200011d565b828001600101855582156200011d579182015b828111156200011d57825182559160200191906001019062000100565b506200012b9291506200012f565b5090565b5b808211156200012b576000815560010162000130565b600181811c908216806200015b57607f821691505b602082108114156200017d57634e487b7160e01b600052602260045260246000fd5b50919050565b611f9780620001936000396000f3fe6080604052600436106101355760003560e01c806395d89b41116100ab578063c322579c1161006f578063c322579c14610354578063c87b56dd14610374578063d1a88ae514610394578063e0391b09146103a9578063e985e9c5146103be578063ef2d17461461040757600080fd5b806395d89b41146102bf57806398c3df16146102d45780639b1225c414610301578063a22cb46514610314578063b88d4fde1461033457600080fd5b806342842e0e116100fd57806342842e0e1461020b578063629cb2e41461022b5780636352211e1461024d57806368f1945f1461026d57806370a082311461028c57806372b3b620146102ac57600080fd5b806301ffc9a71461013a57806306fdde031461016f578063081812fc14610191578063095ea7b3146101c957806323b872dd146101eb575b600080fd5b34801561014657600080fd5b5061015a610155366004611bb5565b61041c565b60405190151581526020015b60405180910390f35b34801561017b57600080fd5b50610184610447565b6040516101669190611d81565b34801561019d57600080fd5b506101b16101ac366004611c43565b6104d9565b6040516001600160a01b039091168152602001610166565b3480156101d557600080fd5b506101e96101e4366004611b8c565b610500565b005b3480156101f757600080fd5b506101e9610206366004611a9e565b61061b565b34801561021757600080fd5b506101e9610226366004611a9e565b61064c565b34801561023757600080fd5b50610240610667565b6040516101669190611d33565b34801561025957600080fd5b506101b1610268366004611c43565b6107e2565b34801561027957600080fd5b50600a545b604051908152602001610166565b34801561029857600080fd5b5061027e6102a7366004611a52565b610842565b61027e6102ba366004611bed565b6108c8565b3480156102cb57600080fd5b5061018461099b565b3480156102e057600080fd5b506102f46102ef366004611c43565b6109aa565b6040516101669190611e78565b6101e961030f366004611c43565b610a14565b34801561032057600080fd5b506101e961032f366004611b52565b610b2d565b34801561034057600080fd5b506101e961034f366004611ad9565b610b3c565b34801561036057600080fd5b506101e961036f366004611c43565b610b6e565b34801561038057600080fd5b5061018461038f366004611c43565b610be9565b3480156103a057600080fd5b506102f4610cfa565b3480156103b557600080fd5b50610240610d71565b3480156103ca57600080fd5b5061015a6103d9366004611a6c565b6001600160a01b03918216600090815260056020908152604080832093909416825291909152205460ff1690565b34801561041357600080fd5b5061027e610e9b565b60006001600160e01b03198216632483248360e11b1480610441575061044182610eab565b92915050565b60606000805461045690611ec9565b80601f016020809104026020016040519081016040528092919081815260200182805461048290611ec9565b80156104cf5780601f106104a4576101008083540402835291602001916104cf565b820191906000526020600020905b8154815290600101906020018083116104b257829003601f168201915b5050505050905090565b60006104e482610efb565b506000908152600460205260409020546001600160a01b031690565b600061050b826107e2565b9050806001600160a01b0316836001600160a01b0316141561057e5760405162461bcd60e51b815260206004820152602160248201527f4552433732313a20617070726f76616c20746f2063757272656e74206f776e656044820152603960f91b60648201526084015b60405180910390fd5b336001600160a01b038216148061059a575061059a81336103d9565b61060c5760405162461bcd60e51b815260206004820152603d60248201527f4552433732313a20617070726f76652063616c6c6572206973206e6f7420746f60448201527f6b656e206f776e6572206f7220617070726f76656420666f7220616c6c0000006064820152608401610575565b6106168383610f5d565b505050565b6106253382610fcb565b6106415760405162461bcd60e51b815260040161057590611d94565b610616838383611049565b61061683838360405180602001604052806000815250610b3c565b6060600061067460085490565b90506000808267ffffffffffffffff8111156106a057634e487b7160e01b600052604160045260246000fd5b6040519080825280602002602001820160405280156106d957816020015b6106c66118f9565b8152602001906001900390816106be5790505b50905060015b8381116107d8576000818152600b60205260409020600101546001600160a01b031633148061072757506000818152600b60205260409020600201546001600160a01b031633145b156107c6576000818152600b6020908152604091829020825160a0810184528154815260018201546001600160a01b03908116938201939093526002820154909216928201929092526003820154606082015260049091015460ff161515608082015282518390859081106107ac57634e487b7160e01b600052603260045260246000fd5b602002602001018190525082806107c290611f04565b9350505b806107d081611f04565b9150506106df565b5090815292915050565b6000818152600260205260408120546001600160a01b0316806104415760405162461bcd60e51b8152602060048201526018602482015277115490cdcc8c4e881a5b9d985b1a59081d1bdad95b88125160421b6044820152606401610575565b60006001600160a01b0382166108ac5760405162461bcd60e51b815260206004820152602960248201527f4552433732313a2061646472657373207a65726f206973206e6f7420612076616044820152683634b21037bbb732b960b91b6064820152608401610575565b506001600160a01b031660009081526003602052604090205490565b6000600a54341461091b5760405162461bcd60e51b815260206004820152601960248201527f53656e6420656e6f75676820657468657220746f206c697374000000000000006044820152606401610575565b6000821161095b5760405162461bcd60e51b815260206004820152600d60248201526c496e76616c696420707269636560981b6044820152606401610575565b610969600880546001019055565b600061097460085490565b905061098033826111ad565b61098a81856111c7565b6109948184611299565b9392505050565b60606001805461045690611ec9565b6109b26118f9565b506000908152600b6020908152604091829020825160a0810184528154815260018201546001600160a01b03908116938201939093526002820154909216928201929092526003820154606082015260049091015460ff161515608082015290565b6000818152600b6020526040902060030154348114610a6b5760405162461bcd60e51b8152602060048201526013602482015272496e73756666696369656e742065746865727360681b6044820152606401610575565b6000828152600b602052604090206002810180546004909201805460ff19169055336001600160a01b0319831681179091556001600160a01b0390911690610ab590309085611049565b600754600a546040516001600160a01b039092169181156108fc0291906000818181858888f19350505050158015610af1573d6000803e3d6000fd5b506040516001600160a01b038216903480156108fc02916000818181858888f19350505050158015610b27573d6000803e3d6000fd5b50505050565b610b38338383611336565b5050565b610b463383610fcb565b610b625760405162461bcd60e51b815260040161057590611d94565b610b2784848484611405565b6007546001600160a01b03163314610be45760405162461bcd60e51b815260206004820152603360248201527f4f6e6c792074686520636f6e7472616374206f776e65722063616e207365742060448201527261206e6577206c697374696e6720707269636560681b6064820152608401610575565b600a55565b6060610bf482610efb565b60008281526006602052604081208054610c0d90611ec9565b80601f0160208091040260200160405190810160405280929190818152602001828054610c3990611ec9565b8015610c865780601f10610c5b57610100808354040283529160200191610c86565b820191906000526020600020905b815481529060010190602001808311610c6957829003601f168201915b505050505090506000610ca460408051602081019091526000815290565b9050805160001415610cb7575092915050565b815115610ce9578082604051602001610cd1929190611cc7565b60405160208183030381529060405292505050919050565b610cf284611438565b949350505050565b610d026118f9565b6000610d0d60085490565b6000908152600b6020908152604091829020825160a0810184528154815260018201546001600160a01b03908116938201939093526002820154909216928201929092526003820154606082015260049091015460ff161515608082015292915050565b60606000610d7e60085490565b905060008167ffffffffffffffff811115610da957634e487b7160e01b600052604160045260246000fd5b604051908082528060200260200182016040528015610de257816020015b610dcf6118f9565b815260200190600190039081610dc75790505b50905060015b828111610e94576000818152600b6020908152604091829020825160a081018452815481526001808301546001600160a01b0390811694830194909452600283015490931693810193909352600381015460608401526004015460ff16151560808301528390610e589084611e86565b81518110610e7657634e487b7160e01b600052603260045260246000fd5b60200260200101819052508080610e8c90611f04565b915050610de8565b5092915050565b6000610ea660085490565b905090565b60006001600160e01b031982166380ac58cd60e01b1480610edc57506001600160e01b03198216635b5e139f60e01b145b8061044157506301ffc9a760e01b6001600160e01b0319831614610441565b6000818152600260205260409020546001600160a01b0316610f5a5760405162461bcd60e51b8152602060048201526018602482015277115490cdcc8c4e881a5b9d985b1a59081d1bdad95b88125160421b6044820152606401610575565b50565b600081815260046020526040902080546001600160a01b0319166001600160a01b0384169081179091558190610f92826107e2565b6001600160a01b03167f8c5be1e5ebec7d5bd14f71427d1e84f3dd0314c0f7b2291e5b200ac8c7c3b92560405160405180910390a45050565b600080610fd7836107e2565b9050806001600160a01b0316846001600160a01b0316148061101e57506001600160a01b0380821660009081526005602090815260408083209388168352929052205460ff165b80610cf25750836001600160a01b0316611037846104d9565b6001600160a01b031614949350505050565b826001600160a01b031661105c826107e2565b6001600160a01b0316146110825760405162461bcd60e51b815260040161057590611e33565b6001600160a01b0382166110e45760405162461bcd60e51b8152602060048201526024808201527f4552433732313a207472616e7366657220746f20746865207a65726f206164646044820152637265737360e01b6064820152608401610575565b826001600160a01b03166110f7826107e2565b6001600160a01b03161461111d5760405162461bcd60e51b815260040161057590611e33565b600081815260046020908152604080832080546001600160a01b03199081169091556001600160a01b0387811680865260038552838620805460001901905590871680865283862080546001019055868652600290945282852080549092168417909155905184937fddf252ad1be2c89b69c2b068fc378daa952ba7f163c4a11628f55a4df523b3ef91a4505050565b610b388282604051806020016040528060008152506114ab565b6000828152600260205260409020546001600160a01b03166112425760405162461bcd60e51b815260206004820152602e60248201527f45524337323155524953746f726167653a2055524920736574206f66206e6f6e60448201526d32bc34b9ba32b73a103a37b5b2b760911b6064820152608401610575565b6000828152600660209081526040909120825161126192840190611927565b506040518281527ff8e1a15aba9398e019f0b49df1a4fde98ee17ae345cb5f6b5e2c27f5033e8ce79060200160405180910390a15050565b6040805160a081018252838152306020808301828152338486018181526060860188815260016080880181815260008c8152600b9097529890952096518755925193860180546001600160a01b039586166001600160a01b03199182161790915590516002870180549190951691161790925551600384015592516004909201805492151560ff1990931692909217909155610b38919084611049565b816001600160a01b0316836001600160a01b031614156113985760405162461bcd60e51b815260206004820152601960248201527f4552433732313a20617070726f766520746f2063616c6c6572000000000000006044820152606401610575565b6001600160a01b03838116600081815260056020908152604080832094871680845294825291829020805460ff191686151590811790915591519182527f17307eab39ab6107e8899845ad3d59bd9653f200f220920489ca2b5937696c31910160405180910390a3505050565b611410848484611049565b61141c848484846114de565b610b275760405162461bcd60e51b815260040161057590611de1565b606061144382610efb565b600061145a60408051602081019091526000815290565b9050600081511161147a5760405180602001604052806000815250610994565b80611484846115eb565b604051602001611495929190611cc7565b6040516020818303038152906040529392505050565b6114b58383611696565b6114c260008484846114de565b6106165760405162461bcd60e51b815260040161057590611de1565b60006001600160a01b0384163b156115e057604051630a85bd0160e11b81526001600160a01b0385169063150b7a0290611522903390899088908890600401611cf6565b602060405180830381600087803b15801561153c57600080fd5b505af192505050801561156c575060408051601f3d908101601f1916820190925261156991810190611bd1565b60015b6115c6573d80801561159a576040519150601f19603f3d011682016040523d82523d6000602084013e61159f565b606091505b5080516115be5760405162461bcd60e51b815260040161057590611de1565b805181602001fd5b6001600160e01b031916630a85bd0160e11b149050610cf2565b506001949350505050565b606060006115f883611821565b600101905060008167ffffffffffffffff81111561162657634e487b7160e01b600052604160045260246000fd5b6040519080825280601f01601f191660200182016040528015611650576020820181803683370190505b5090508181016020015b600019016f181899199a1a9b1b9c1cb0b131b232b360811b600a86061a8153600a85049450846116895761168e565b61165a565b509392505050565b6001600160a01b0382166116ec5760405162461bcd60e51b815260206004820181905260248201527f4552433732313a206d696e7420746f20746865207a65726f20616464726573736044820152606401610575565b6000818152600260205260409020546001600160a01b0316156117515760405162461bcd60e51b815260206004820152601c60248201527f4552433732313a20746f6b656e20616c7265616479206d696e746564000000006044820152606401610575565b6000818152600260205260409020546001600160a01b0316156117b65760405162461bcd60e51b815260206004820152601c60248201527f4552433732313a20746f6b656e20616c7265616479206d696e746564000000006044820152606401610575565b6001600160a01b038216600081815260036020908152604080832080546001019055848352600290915280822080546001600160a01b0319168417905551839291907fddf252ad1be2c89b69c2b068fc378daa952ba7f163c4a11628f55a4df523b3ef908290a45050565b60008072184f03e93ff9f4daa797ed6e38ed64bf6a1f0160401b83106118605772184f03e93ff9f4daa797ed6e38ed64bf6a1f0160401b830492506040015b6d04ee2d6d415b85acef8100000000831061188c576d04ee2d6d415b85acef8100000000830492506020015b662386f26fc1000083106118aa57662386f26fc10000830492506010015b6305f5e10083106118c2576305f5e100830492506008015b61271083106118d657612710830492506004015b606483106118e8576064830492506002015b600a83106104415760010192915050565b6040805160a08101825260008082526020820181905291810182905260608101829052608081019190915290565b82805461193390611ec9565b90600052602060002090601f016020900481019282611955576000855561199b565b82601f1061196e57805160ff191683800117855561199b565b8280016001018555821561199b579182015b8281111561199b578251825591602001919060010190611980565b506119a79291506119ab565b5090565b5b808211156119a757600081556001016119ac565b600067ffffffffffffffff808411156119db576119db611f35565b604051601f8501601f19908116603f01168101908282118183101715611a0357611a03611f35565b81604052809350858152868686011115611a1c57600080fd5b858560208301376000602087830101525050509392505050565b80356001600160a01b0381168114611a4d57600080fd5b919050565b600060208284031215611a63578081fd5b61099482611a36565b60008060408385031215611a7e578081fd5b611a8783611a36565b9150611a9560208401611a36565b90509250929050565b600080600060608486031215611ab2578081fd5b611abb84611a36565b9250611ac960208501611a36565b9150604084013590509250925092565b60008060008060808587031215611aee578081fd5b611af785611a36565b9350611b0560208601611a36565b925060408501359150606085013567ffffffffffffffff811115611b27578182fd5b8501601f81018713611b37578182fd5b611b46878235602084016119c0565b91505092959194509250565b60008060408385031215611b64578182fd5b611b6d83611a36565b915060208301358015158114611b81578182fd5b809150509250929050565b60008060408385031215611b9e578182fd5b611ba783611a36565b946020939093013593505050565b600060208284031215611bc6578081fd5b813561099481611f4b565b600060208284031215611be2578081fd5b815161099481611f4b565b60008060408385031215611bff578182fd5b823567ffffffffffffffff811115611c15578283fd5b8301601f81018513611c25578283fd5b611c34858235602084016119c0565b95602094909401359450505050565b600060208284031215611c54578081fd5b5035919050565b60008151808452611c73816020860160208601611e9d565b601f01601f19169290920160200192915050565b805182526020808201516001600160a01b039081169184019190915260408083015190911690830152606080820151908301526080908101511515910152565b60008351611cd9818460208801611e9d565b835190830190611ced818360208801611e9d565b01949350505050565b6001600160a01b0385811682528416602082015260408101839052608060608201819052600090611d2990830184611c5b565b9695505050505050565b6020808252825182820181905260009190848201906040850190845b81811015611d7557611d62838551611c87565b9284019260a09290920191600101611d4f565b50909695505050505050565b6020815260006109946020830184611c5b565b6020808252602d908201527f4552433732313a2063616c6c6572206973206e6f7420746f6b656e206f776e6560408201526c1c881bdc88185c1c1c9bdd9959609a1b606082015260800190565b60208082526032908201527f4552433732313a207472616e7366657220746f206e6f6e20455243373231526560408201527131b2b4bb32b91034b6b83632b6b2b73a32b960711b606082015260800190565b60208082526025908201527f4552433732313a207472616e736665722066726f6d20696e636f72726563742060408201526437bbb732b960d91b606082015260800190565b60a081016104418284611c87565b600082821015611e9857611e98611f1f565b500390565b60005b83811015611eb8578181015183820152602001611ea0565b83811115610b275750506000910152565b600181811c90821680611edd57607f821691505b60208210811415611efe57634e487b7160e01b600052602260045260246000fd5b50919050565b6000600019821415611f1857611f18611f1f565b5060010190565b634e487b7160e01b600052601160045260246000fd5b634e487b7160e01b600052604160045260246000fd5b6001600160e01b031981168114610f5a57600080fdfea2646970667358221220015f41512c53c497f01c03e0679d305791e844c6404a2f68fc4528da1e4b2fc564736f6c63430008040033",
  "linkReferences": {},
  "deployedLinkReferences": {}
}